:04000000020029329F
:03000B000204EDFF
:0100130032BA
:01001B0032B2
:0300230002009E3A
:1C008200751200751300750800750901E4F50AF50BF50CF50DF50EF50F02002642
:0300260002044889
:20009E00C021C0E0C0F0C082C083C007C006C005C004C003C002C001C000C0D075D000C2D9
:2000BE00AF109802804AE50AB50C15E50BB50D10C3E4950E7480850FF063F08095F04030EE
:2000DE00E50C2481F582E50D3400F583E599F0850C82850D83A37514807515001205C88527
:2000FE00820C85830D7401250EF50EE4350FF50FD2AFD0D0D000D001D002D003D004D00558
:20011E00D006D007D083D082D0F0D0E0D02132C2AFE50E450F70067EFF7FFF8036E50A24EA
:20013E0081F582E50B3400F583E0FE7F00850A82850B83A37514808F15C007C0061205C8D0
:20015E0085820A85830BD006D007150E74FFB50E02150FD2AF8E828F832212012DAE82AF4D
:20017E00838E048F05BEFF06BFFF030080EC8C82227F077E02EE14FDFE70FAEF14FEFF70BB
:20019E00F222AE82AF838E048F051EBEFF011FEC4D600DC007C00612018FD006D00780E6C2
:2001BE0022AF82C2D575F040EF30E704B2D5F404A430D50AF42401C5F0F43400C5F0FEAFFE
:2001DE00F07D00EDC40354F8FC7B00EE2401F9EF3400FAEC29F9E43AFAEB29F582E43AF530
:2001FE0083E514F00BBB080040E10DBD080040D322AF828FF005F07401800225E0D5F0FB1E
:20021E00FFE516604AE50875F040A42401FD740035F0FEE515C40354F8FC2DFDE43EFEE5F5
:20023E0014FB2DFDE43EFEE50875F040A42401F9740035F0FAEC29F9E43AFAEB29F582E4CB
:20025E003AF583E0FCEF42048D828E83ECF022E50875F040A42401FD740035F0FEE515C4F2
:20027E000354F8FC2DFDE43EFEE514FB2DFDE43EFEE50875F040A42401F9740035F0FAECBA
:20029E0029F9E43AFAEB29F582E43AF583EFF4FFE052078D828E83EFF022AF82E50875F026
:2002BE0040A42401FD740035F0FEE514C40354F82DFDE43EFEEF2DF582E43EF583E515F016
:2002DE0022E508600875080075090180067508017509007514008509820201BFE582FF3317
:2002FE00B3E433FE30E044E5106007747FC39FFE80028F06EE90060293FEC4035407FD5375
:20031E000507EE0303543FFC530407530603C374BF8FF063F08095F050057407C39EFE8CEE
:20033E00148E158511168D8202020F227F81C3E4950E7480850FF063F08095F05002D32297
:20035E00EF24FEF582751000751101C0071202FA901F401201A0D007EF14FE751000751191
:20037E00008E82C0061202FAD0068E07EF70BF901F401201A07F00C3E4950E7480850FF00F
:20039E0063F08095F05002D3227510017511018F82C0071202FA901F401201A0D007EF2421
:2003BE00F8F582751001751100C0071202FAD0070FBF880040C1901F401201A07F81C3E458
:2003DE00950E7480850FF063F08095F05002D322EF24FEF582751000751101C0071202FADC
:2003FE00901F401201A0D007DFD4901F401201A07F00C3E4950E7480850FF063F08095F078
:20041E005002D322EF24F8F582751001751100C0071202FA901F401201A0D0070FBF80004D
:20043E0040D090EA601201A0C322C201C2007F0053877F759850438E04759CD9438E01438E
:20045E008E10D2AC758C40758A00D28CD2A9D2AF751400850882C0071201BF751400850980
:20047E00821201BFD00730015BC007120178AE82D0078E057E0020000CBDF2EABE00E7D201
:20049E00007F0080E1BF4000502AE50975F040A42401FB740035F0FCEFC423541FC4035495
:2004BE00F8FA2BFBE43CFC74075F2BF582E43CF583EDF00FBF400040ADC0071202DFD0076D
:2004DE00C20080A2C00712034AD00792018097C0E0C0F0C082C083C007C006C005C0D07547
:2004FE00D0007580008512F005F07401800225E0D5F0FBF5A08513F005F07401800225E0D3
:20051E00D5F0FBF590E50875F040A42401FE740035F0FFE513C40354F82EFEE43FFFE51237
:20053E00FD2EF582E43FF583E0F580740325125407F51274032513FFE4B5120474018001A8
:1D055E00E42F5407F513758CF8758A00D0D0D005D006D007D083D082D0F0D0E032A9
:200602000020406080A0C0E0E4E8ECF0F4F8FCDCBC9C7C5C3C1C1814100C080425456585BC
:20062200A5C5C9CDD1D5D9B99979593935312D294A6A8AAAAEB2B6967656524E6F8F93731C
:200642006F8F93734A6A8AAAAEB2B6967656524E25456585A5C5C9CDD1D5D9B99979593964
:2006620035312D290020406080A0C0E0E4E8ECF0F4F8FCDCBC9C7C5C3C1C1814100C0804F4
:06005800E478FFF6D8FD7C
:200036007900E94400601B7A00900682780175A001E493F2A308B8000205A0D9F4DAF275E7
:02005600A0FF09
:20057B00E514451560467A01E51425E0F514E515334012F515E5829514E583951540030AED
:20059B0080E6C3E51513F515E51413F514C3E5829514F5F0E58395154005F58385F082C3AA
:0D05BB00E51513F515E51413F514DAE1222A
:20005E007800E84400600A790175A000E4F309D8FC7800E84401600C7901900001E4F0A39E
:04007E00D8FCD9FAD7
:0D0029007581211205FEE5826003020026AC
:2005C800C2D5E58330E70DD2D5E4C39582F582E49583F583E51530E70BE4C39514F514E447
:1605E8009515F51512057B30D50BE4C39582F582E49583F58322DC
:0405FE0075820022E0
:00000001FF
